{
  "contractName": "Darticles",
  "abi": [
    {
      "constant": false,
      "inputs": [
        {
          "name": "_to",
          "type": "address"
        },
        {
          "name": "_id",
          "type": "uint256"
        }
      ],
      "name": "transferArtwork",
      "outputs": [],
      "payable": false,
      "stateMutability": "nonpayable",
      "type": "function"
    },
    {
      "constant": true,
      "inputs": [
        {
          "name": "",
          "type": "uint256"
        }
      ],
      "name": "currentBidForAuctionWithID",
      "outputs": [
        {
          "name": "sender",
          "type": "address"
        },
        {
          "name": "value",
          "type": "uint256"
        }
      ],
      "payable": false,
      "stateMutability": "view",
      "type": "function"
    },
    {
      "constant": false,
      "inputs": [
        {
          "name": "_auctionID",
          "type": "uint256"
        }
      ],
      "name": "makeBid",
      "outputs": [],
      "payable": true,
      "stateMutability": "payable",
      "type": "function"
    },
    {
      "constant": false,
      "inputs": [
        {
          "name": "_amount",
          "type": "uint256"
        }
      ],
      "name": "withdraw",
      "outputs": [
        {
          "name": "",
          "type": "bool"
        }
      ],
      "payable": false,
      "stateMutability": "nonpayable",
      "type": "function"
    },
    {
      "constant": true,
      "inputs": [
        {
          "name": "",
          "type": "address"
        }
      ],
      "name": "profileOf",
      "outputs": [
        {
          "name": "imageLink",
          "type": "bytes32"
        },
        {
          "name": "firstName",
          "type": "bytes32"
        },
        {
          "name": "lastName",
          "type": "bytes32"
        },
        {
          "name": "nickName",
          "type": "bytes32"
        }
      ],
      "payable": false,
      "stateMutability": "view",
      "type": "function"
    },
    {
      "constant": false,
      "inputs": [
        {
          "name": "_imageLink",
          "type": "bytes32"
        },
        {
          "name": "_title",
          "type": "bytes32"
        },
        {
          "name": "_description",
          "type": "bytes32"
        }
      ],
      "name": "addArtwork",
      "outputs": [],
      "payable": false,
      "stateMutability": "nonpayable",
      "type": "function"
    },
    {
      "constant": true,
      "inputs": [
        {
          "name": "",
          "type": "uint256"
        }
      ],
      "name": "endedAuctions",
      "outputs": [
        {
          "name": "",
          "type": "uint256"
        },
        {
          "name": "owner",
          "type": "address"
        },
        {
          "name": "imageLink",
          "type": "bytes32"
        },
        {
          "name": "title",
          "type": "bytes32"
        },
        {
          "name": "description",
          "type": "bytes32"
        }
      ],
      "payable": false,
      "stateMutability": "view",
      "type": "function"
    },
    {
      "constant": true,
      "inputs": [
        {
          "name": "",
          "type": "uint256"
        },
        {
          "name": "",
          "type": "uint256"
        }
      ],
      "name": "artwork",
      "outputs": [
        {
          "name": "creator",
          "type": "address"
        },
        {
          "name": "owner",
          "type": "address"
        },
        {
          "name": "imageLink",
          "type": "bytes32"
        },
        {
          "name": "title",
          "type": "bytes32"
        },
        {
          "name": "description",
          "type": "bytes32"
        }
      ],
      "payable": false,
      "stateMutability": "view",
      "type": "function"
    },
    {
      "constant": true,
      "inputs": [
        {
          "name": "",
          "type": "uint256"
        },
        {
          "name": "_initialPrice",
          "type": "uint256"
        },
        {
          "name": "_endTimestamp",
          "type": "uint256"
        }
      ],
      "name": "activeAuctions",
      "outputs": [
        {
          "name": "",
          "type": "uint256"
        }
      ],
      "payable": false,
      "stateMutability": "view",
      "type": "function"
    },
    {
      "constant": true,
      "inputs": [
        {
          "name": "",
          "type": "address"
        },
        {
          "name": "",
          "type": "uint256"
        }
      ],
      "name": "auctionsOf",
      "outputs": [
        {
          "name": "",
          "type": "uint256"
        },
        {
          "name": "artworkID",
          "type": "uint256"
        },
        {
          "name": "initialPrice",
          "type": "uint256"
        },
        {
          "name": "endTimestamp",
          "type": "uint256"
        },
        {
          "name": "state",
          "type": "uint8"
        }
      ],
      "payable": false,
      "stateMutability": "view",
      "type": "function"
    },
    {
      "constant": false,
      "inputs": [
        {
          "name": "_artworkID",
          "type": "uint256"
        },
        {
          "name": "_initialPrice",
          "type": "uint256"
        },
        {
          "name": "_endTimestamp",
          "type": "uint256"
        }
      ],
      "name": "startAuction",
      "outputs": [],
      "payable": false,
      "stateMutability": "nonpayable",
      "type": "function"
    },
    {
      "constant": true,
      "inputs": [
        {
          "name": "",
          "type": "address"
        },
        {
          "name": "",
          "type": "uint256"
        }
      ],
      "name": "artworkCount",
      "outputs": [
        {
          "name": "",
          "type": "uint256"
        }
      ],
      "payable": false,
      "stateMutability": "view",
      "type": "function"
    },
    {
      "constant": true,
      "inputs": [
        {
          "name": "",
          "type": "uint256"
        }
      ],
      "name": "auctionWithID",
      "outputs": [
        {
          "name": "owner",
          "type": "address"
        },
        {
          "name": "artworkID",
          "type": "uint256"
        },
        {
          "name": "initialPrice",
          "type": "uint256"
        },
        {
          "name": "endTimestamp",
          "type": "uint256"
        },
        {
          "name": "state",
          "type": "uint8"
        }
      ],
      "payable": false,
      "stateMutability": "view",
      "type": "function"
    },
    {
      "constant": true,
      "inputs": [],
      "name": "auctionsCount",
      "outputs": [
        {
          "components": [
            {
              "name": "imageLink",
              "type": "bytes32"
            },
            {
              "name": "firstName",
              "type": "bytes32"
            },
            {
              "name": "lastName",
              "type": "bytes32"
            },
            {
              "name": "nickName",
              "type": "bytes32"
            }
          ],
          "name": "",
          "type": "uint256"
        }
      ],
      "payable": false,
      "stateMutability": "view",
      "type": "function"
    },
    {
      "constant": false,
      "inputs": [
        {
          "name": "_auctionID",
          "type": "uint256"
        },
        {
          "name": "_firstName",
          "type": "bytes32"
        },
        {
          "name": "_lastName",
          "type": "bytes32"
        },
        {
          "name": "_nickName",
          "type": "bytes32"
        }
      ],
      "name": "endAuction",
      "outputs": [],
      "payable": false,
      "stateMutability": "nonpayable",
      "type": "function"
    },
    {
      "inputs": [
        {
          "name": "",
          "type": "address"
        },
        {
          "name": "",
          "type": "uint256"
        }
      ],
      "payable": false,
      "stateMutability": "view",
      "type": "function",
      "constant": true,
      "name": "getActiveAuctions",
      "outputs": [
        {
          "name": "",
          "type": "uint256[]"
        }
      ]
    },
    {
      "anonymous": false,
      "inputs": [
        {
          "indexed": false,
          "name": "",
          "type": "address"
        },
        {
          "indexed": false,
          "name": "",
          "type": "uint256"
        },
        {
          "indexed": false,
          "name": "value",
          "type": "uint256"
        }
      ],
      "name": "portfolioOf",
      "type": "function",
      "constant": true,
      "outputs": [
        {
          "name": "",
          "type": "uint256"
        }
      ],
      "payable": false,
      "stateMutability": "view"
    },
    {
      "anonymous": false,
      "inputs": [
        {
          "indexed": false,
          "name": "",
          "type": "address"
        }
      ],
      "name": "refundsFor",
      "type": "function",
      "constant": true,
      "outputs": [
        {
          "components": [
            {
              "name": "imageLink",
              "type": "bytes32"
            },
            {
              "name": "firstName",
              "type": "bytes32"
            },
            {
              "name": "lastName",
              "type": "bytes32"
            },
            {
              "name": "nickName",
              "type": "bytes32"
            }
          ],
          "name": "",
          "type": "uint256"
        }
      ],
      "payable": false,
      "stateMutability": "view"
    },
    {
      "anonymous": false,
      "inputs": [
        {
          "indexed": false,
          "name": "auctionID",
          "type": "uint256"
        }
      ],
      "name": "getPortfolio",
      "type": "function",
      "constant": true,
      "outputs": [
        {
          "name": "",
          "type": "uint256[]"
        }
      ],
      "payable": false,
      "stateMutability": "view"
    },
    {
      "constant": true,
      "inputs": [
        {
          "name": "_profileImageLink",
          "type": "bytes32"
        },
        {
          "name": "_firstName",
          "type": "bytes32"
        },
        {
          "name": "_lastName",
          "type": "bytes32"
        },
        {
          "name": "_nickName",
          "type": "bytes32"
        }
      ],
      "name": "getProfile",
      "outputs": [
        {
          "components": [
            {
              "name": "imageLink",
              "type": "bytes32"
            },
            {
              "name": "firstName",
              "type": "bytes32"
            },
            {
              "name": "lastName",
              "type": "bytes32"
            },
            {
              "name": "nickName",
              "type": "bytes32"
            }
          ],
          "name": "",
          "type": "tuple"
        }
      ],
      "payable": false,
      "stateMutability": "view",
      "type": "function"
    },
    {
      "inputs": [
        {
          "name": "_profileImageLink",
          "type": "bytes32"
        },
        {
          "name": "_firstName",
          "type": "bytes32"
        },
        {
          "name": "_lastName",
          "type": "bytes32"
        },
        {
          "name": "_nickName",
          "type": "bytes32"
        }
      ],
      "payable": false,
      "stateMutability": "nonpayable",
      "type": "function",
      "constant": false,
      "name": "setProfile",
      "outputs": []
    },
    {
      "anonymous": false,
      "inputs": [
        {
          "indexed": false,
          "name": "auctionID",
          "type": "uint256"
        },
        {
          "indexed": false,
          "name": "sender",
          "type": "address"
        },
        {
          "indexed": false,
          "name": "value",
          "type": "uint256"
        }
      ],
      "name": "getEndedAuctions",
      "type": "function",
      "constant": true,
      "outputs": [
        {
          "name": "",
          "type": "uint256[]"
        }
      ],
      "payable": false,
      "stateMutability": "view"
    },
    {
      "anonymous": false,
      "inputs": [
        {
          "indexed": false,
          "name": "auctionID",
          "type": "uint256"
        }
      ],
      "name": "LogOpenedAuction",
      "type": "constructor",
      "payable": false,
      "stateMutability": "nonpayable"
    },
    {
      "anonymous": false,
      "inputs": [
        {
          "indexed": false,
          "name": "auctionID",
          "type": "uint256"
        },
        {
          "indexed": false,
          "name": "sender",
          "type": "address"
        },
        {
          "indexed": false,
          "name": "value",
          "type": "uint256"
        }
      ],
      "name": "LogNewBid",
      "type": "event"
    },
    {
      "anonymous": false,
      "inputs": [
        {
          "indexed": false,
          "name": "auctionID",
          "type": "uint256"
        }
      ],
      "name": "LogOpenedAuction",
      "type": "event"
    },
    {
      "anonymous": false,
      "inputs": [
        {
          "indexed": false,
          "name": "auctionID",
          "type": "uint256"
        }
      ],
      "name": "LogEndedAuction",
      "type": "event"
    }
  ],
  "bytecode": "0x6060604052600080556000600155341561001857600080fd5b611b29806100276000396000f300606060405260043610610128576000357c0100000000000000000000000000000000000000000000000000000000900463ffffffff1680630c45ed071461012d578063155b1a731461016f578063175b2304146101d95780632e1a7d4d146101f15780632f8eb9cb1461022c5780632ff74785146102ae57806337df273b146102ef57806354682d7214610326578063790d8596146103e95780638501313f1461042057806391e078bb14610476578063a0876445146104ab578063b0985e5d146104d4578063b830620a14610561578063b9a2de3a1461058a578063cf44b5d5146105ad578063d2d8fca314610617578063d2e7700c1461066d578063d3d03458146106ba578063d6afc9b114610724578063d87548321461074d578063f10a69ec1461079b575b600080fd5b341561013857600080fd5b61016d600480803573ffffffffffffffffffffffffffffffffffffffff16906020019091908035906020019091905050610805565b005b341561017a57600080fd5b610190600480803590602001909190505061097e565b604051808373ffffffffffffffffffffffffffffffffffffffff1673ffffffffffffffffffffffffffffffffffffffff1681526020018281526020019250505060405180910390f35b6101ef60048080359060200190919050506109c2565b005b34156101fc57600080fd5b6102126004808035906020019091905050610bb5565b604051808215151515815260200191505060405180910390f35b341561023757600080fd5b610263600480803573ffffffffffffffffffffffffffffffffffffffff16906020019091905050610c9b565b60405180856000191660001916815260200184600019166000191681526020018360001916600019168152602001826000191660001916815260200194505050505060405180910390f35b34156102b957600080fd5b6102ed6004808035600019169060200190919080356000191690602001909190803560001916906020019091905050610ccb565b005b34156102fa57600080fd5b6103106004808035906020019091905050610e8b565b6040518082815260200191505060405180910390f35b341561033157600080fd5b6103476004808035906020019091905050610eaf565b604051808673ffffffffffffffffffffffffffffffffffffffff1673ffffffffffffffffffffffffffffffffffffffff1681526020018573ffffffffffffffffffffffffffffffffffffffff1673ffffffffffffffffffffffffffffffffffffffff1681526020018460001916600019168152602001836000191660001916815260200182600019166000191681526020019550505050505060405180910390f35b34156103f457600080fd5b61040a6004808035906020019091905050610f25565b6040518082815260200191505060405180910390f35b341561042b57600080fd5b610460600480803573ffffffffffffffffffffffffffffffffffffffff16906020019091908035906020019091905050610f49565b6040518082815260200191505060405180910390f35b341561048157600080fd5b6104a96004808035906020019091908035906020019091908035906020019091905050610f7a565b005b34156104b657600080fd5b6104be61121f565b6040518082815260200191505060405180910390f35b34156104df57600080fd5b6104f56004808035906020019091905050611225565b604051808673ffffffffffffffffffffffffffffffffffffffff1673ffffffffffffffffffffffffffffffffffffffff16815260200185815260200184815260200183815260200182600181111561054957fe5b60ff1681526020019550505050505060405180910390f35b341561056c57600080fd5b610574611288565b6040518082815260200191505060405180910390f35b341561059557600080fd5b6105ab600480803590602001909190505061128e565b005b34156105b857600080fd5b6105c0611559565b6040518080602001828103825283818151815260200191508051906020019060200280838360005b838110156106035780820151818401526020810190506105e8565b505050509050019250505060405180910390f35b341561062257600080fd5b610657600480803573ffffffffffffffffffffffffffffffffffffffff169060200190919080359060200190919050506115b7565b6040518082815260200191505060405180910390f35b341561067857600080fd5b6106a4600480803573ffffffffffffffffffffffffffffffffffffffff169060200190919050506115e8565b6040518082815260200191505060405180910390f35b34156106c557600080fd5b6106cd611600565b6040518080602001828103825283818151815260200191508051906020019060200280838360005b838110156107105780820151818401526020810190506106f5565b505050509050019250505060405180910390f35b341561072f57600080fd5b61073761169b565b6040518082815260200191505060405180910390f35b341561075857600080fd5b61079960048080356000191690602001909190803560001916906020019091908035600019169060200190919080356000191690602001909190505061173b565b005b34156107a657600080fd5b6107ae611801565b6040518080602001828103825283818151815260200191508051906020019060200280838360005b838110156107f15780820151818401526020810190506107d6565b505050509050019250505060405180910390f35b60006108108261185f565b9050600360003373ffffffffffffffffffffffffffffffffffffffff1673ffffffffffffffffffffffffffffffffffffffff16815260200190815260200160002080549050811415151561086357600080fd5b826002600084815260200190815260200160002060010160006101000a81548173ffffffffffffffffffffffffffffffffffffffff021916908373ffffffffffffffffffffffffffffffffffffffff160217905550600360008473ffffffffffffffffffffffffffffffffffffffff1673ffffffffffffffffffffffffffffffffffffffff1681526020019081526020016000208054806001018281610909919061197d565b916000526020600020900160008490919091505550600360003373ffffffffffffffffffffffffffffffffffffffff1673ffffffffffffffffffffffffffffffffffffffff1681526020019081526020016000208181548110151561096a57fe5b906000526020600020900160009055505050565b60086020528060005260406000206000915090508060000160009054906101000a900473ffffffffffffffffffffffffffffffffffffffff16908060010154905082565b60006109cc6119a9565b600660008481526020019081526020016000209150816002015434101515156109f457600080fd5b600860008481526020019081526020016000206001015434111515610a1857600080fd5b6008600084815260200190815260200160002060010154600560006008600087815260200190815260200160002060000160009054906101000a900473ffffffffffffffffffffffffffffffffffffffff1673ffffffffffffffffffffffffffffffffffffffff1673ffffffffffffffffffffffffffffffffffffffff1681526020019081526020016000208190555060408051908101604052803373ffffffffffffffffffffffffffffffffffffffff168152602001348152509050806008600085815260200190815260200160002060008201518160000160006101000a81548173ffffffffffffffffffffffffffffffffffffffff021916908373ffffffffffffffffffffffffffffffffffffffff160217905550602082015181600101559050507f090ec43cb417274eade7675318bc57417abf3a3529ee7a6a18084c63ba82a115833334604051808481526020018373ffffffffffffffffffffffffffffffffffffffff1673ffffffffffffffffffffffffffffffffffffffff168152602001828152602001935050505060405180910390a1505050565b600081600560003373ffffffffffffffffffffffffffffffffffffffff1673ffffffffffffffffffffffffffffffffffffffff1681526020019081526020016000205410151515610c0557600080fd5b81600560003373ffffffffffffffffffffffffffffffffffffffff1673ffffffffffffffffffffffffffffffffffffffff168152602001908152602001600020600082825403925050819055503373ffffffffffffffffffffffffffffffffffffffff166108fc839081150290604051600060405180830381858888f193505050501515610c9257600080fd5b60019050919050565b60046020528060005260406000206000915090508060000154908060010154908060020154908060030154905084565b6000610cd56119d9565b60008081548092919060010191905055915060a0604051908101604052803373ffffffffffffffffffffffffffffffffffffffff1681526020013373ffffffffffffffffffffffffffffffffffffffff168152602001866000191681526020018560001916815260200184600019168152509050806002600084815260200190815260200160002060008201518160000160006101000a81548173ffffffffffffffffffffffffffffffffffffffff021916908373ffffffffffffffffffffffffffffffffffffffff16021790555060208201518160010160006101000a81548173ffffffffffffffffffffffffffffffffffffffff021916908373ffffffffffffffffffffffffffffffffffffffff160217905550604082015181600201906000191690556060820151816003019060001916905560808201518160040190600019169055905050600360003373ffffffffffffffffffffffffffffffffffffffff1673ffffffffffffffffffffffffffffffffffffffff1681526020019081526020016000208054806001018281610e6f919061197d565b9160005260206000209001600084909190915055505050505050565b600a81815481101515610e9a57fe5b90600052602060002090016000915090505481565b60026020528060005260406000206000915090508060000160009054906101000a900473ffffffffffffffffffffffffffffffffffffffff16908060010160009054906101000a900473ffffffffffffffffffffffffffffffffffffffff16908060020154908060030154908060040154905085565b600981815481101515610f3457fe5b90600052602060002090016000915090505481565b600760205281600052604060002081815481101515610f6457fe5b9060005260206000209001600091509150505481565b610f82611a3e565b600084600360003373ffffffffffffffffffffffffffffffffffffffff1673ffffffffffffffffffffffffffffffffffffffff16815260200190815260200160002080549050610fd18261185f565b14151515610fde57600080fd5b60a0604051908101604052803373ffffffffffffffffffffffffffffffffffffffff1681526020018781526020018681526020018581526020016000600181111561102557fe5b8152509250600160008154809291906001019190505591506110456118f2565b6008600084815260200190815260200160002060008201518160000160006101000a81548173ffffffffffffffffffffffffffffffffffffffff021916908373ffffffffffffffffffffffffffffffffffffffff16021790555060208201518160010155905050600980548060010182816110c0919061197d565b916000526020600020900160008490919091505550600760003373ffffffffffffffffffffffffffffffffffffffff1673ffffffffffffffffffffffffffffffffffffffff1681526020019081526020016000208054806001018281611126919061197d565b916000526020600020900160008490919091505550826006600084815260200190815260200160002060008201518160000160006101000a81548173ffffffffffffffffffffffffffffffffffffffff021916908373ffffffffffffffffffffffffffffffffffffffff16021790555060208201518160010155604082015181600201556060820151816003015560808201518160040160006101000a81548160ff021916908360018111156111d857fe5b02179055509050507f48afd63446a8413b3da01a91b49806994f7a6d83136e0c7cb473b4f8331825d5826040518082815260200191505060405180910390a1505050505050565b60005481565b60066020528060005260406000206000915090508060000160009054906101000a900473ffffffffffffffffffffffffffffffffffffffff16908060010154908060020154908060030154908060040160009054906101000a900460ff16905085565b60015481565b6000806000806006600086815260200190815260200160002093506112b28561192c565b925060098054905083141515156112c857600080fd5b3373ffffffffffffffffffffffffffffffffffffffff166008600087815260200190815260200160002060000160009054906101000a900473ffffffffffffffffffffffffffffffffffffffff1673ffffffffffffffffffffffffffffffffffffffff1614151561133857600080fd5b6000600181111561134557fe5b8460040160009054906101000a900460ff16600181111561136257fe5b14151561136e57600080fd5b83600301544211151561138057600080fd5b60018460040160006101000a81548160ff021916908360018111156113a157fe5b021790555060086000868152602001908152602001600020600101549150600a80548060010182816113d3919061197d565b9160005260206000209001600087909190915055506009838154811015156113f757fe5b906000526020600020900160009055600260008560010154815260200190815260200160002090506064600f830281151561142e57fe5b04600560008360000160009054906101000a900473ffffffffffffffffffffffffffffffffffffffff1673ffffffffffffffffffffffffffffffffffffffff1673ffffffffffffffffffffffffffffffffffffffff168152602001908152602001600020819055506064605583028115156114a557fe5b04600560008360010160009054906101000a900473ffffffffffffffffffffffffffffffffffffffff1673ffffffffffffffffffffffffffffffffffffffff1673ffffffffffffffffffffffffffffffffffffffff1681526020019081526020016000208190555061151b338560010154610805565b7f730d208f40f6acacc34f74a93423e04e31c6d1b75abdd7e1201bf43a23b71ea1856040518082815260200191505060405180910390a15050505050565b611561611a8f565b60098054806020026020016040519081016040528092919081815260200182805480156115ad57602002820191906000526020600020905b815481526020019060010190808311611599575b5050505050905090565b6003602052816000526040600020818154811015156115d257fe5b9060005260206000209001600091509150505481565b60056020528060005260406000206000915090505481565b611608611a8f565b600360003373ffffffffffffffffffffffffffffffffffffffff1673ffffffffffffffffffffffffffffffffffffffff16815260200190815260200160002080548060200260200160405190810160405280929190818152602001828054801561169157602002820191906000526020600020905b81548152602001906001019080831161167d575b5050505050905090565b6116a3611aa3565b600460003373ffffffffffffffffffffffffffffffffffffffff1673ffffffffffffffffffffffffffffffffffffffff168152602001908152602001600020608060405190810160405290816000820154600019166000191681526020016001820154600019166000191681526020016002820154600019166000191681526020016003820154600019166000191681525050905090565b611743611aa3565b6080604051908101604052808660001916815260200185600019168152602001846000191681526020018360001916815250905080600460003373ffffffffffffffffffffffffffffffffffffffff1673ffffffffffffffffffffffffffffffffffffffff168152602001908152602001600020600082015181600001906000191690556020820151816001019060001916905560408201518160020190600019169055606082015181600301906000191690559050505050505050565b611809611a8f565b600a80548060200260200160405190810160405280929190818152602001828054801561185557602002820191906000526020600020905b815481526020019060010190808311611841575b5050505050905090565b6000806000600360003373ffffffffffffffffffffffffffffffffffffffff1673ffffffffffffffffffffffffffffffffffffffff1681526020019081526020016000209150600090505b8382828154811015156118b957fe5b906000526020600020900154141580156118d65750818054905081105b156118e85780806001019150506118aa565b8092505050919050565b6118fa6119a9565b6040805190810160405280600073ffffffffffffffffffffffffffffffffffffffff1681526020016000815250905090565b600080600090505b8260098281548110151561194457fe5b90600052602060002090015414158015611962575060098054905081105b15611974578080600101915050611934565b80915050919050565b8154818355818115116119a4578183600052602060002091820191016119a39190611ad8565b5b505050565b6040805190810160405280600073ffffffffffffffffffffffffffffffffffffffff168152602001600081525090565b60a060405190810160405280600073ffffffffffffffffffffffffffffffffffffffff168152602001600073ffffffffffffffffffffffffffffffffffffffff1681526020016000801916815260200160008019168152602001600080191681525090565b60a060405190810160405280600073ffffffffffffffffffffffffffffffffffffffff16815260200160008152602001600081526020016000815260200160006001811115611a8957fe5b81525090565b602060405190810160405280600081525090565b608060405190810160405280600080191681526020016000801916815260200160008019168152602001600080191681525090565b611afa91905b80821115611af6576000816000905550600101611ade565b5090565b905600a165627a7a72305820a7bc4da37e4e97b333f33ce71b9b59125506f8a1545209b21fd4a0aafa48c78a0029",
  "source": "pragma solidity ^0.4.18;\n\ncontract Darticles {\n    \n    // ==================================\n    //          DATA STRUCTURES\n    // ==================================\n    \n    /**\n        Profile represents user's information,\n        No matter if he/she is an artist or\n        an art collectionist\n    */\n    struct Profile {\n        bytes32 imageLink;   // IPFS link\n        bytes32 firstName;\n        bytes32 lastName;\n        bytes32 nickName;\n    }\n    \n    /**\n        The artwork represents the art pieces that \n        and artist created.\n        \n        An artwork can be auctioned.\n    */\n    struct Artwork {\n        // It is important to always keep track of the artwork creator, \n        // since this address can be rewarded on every auction \n        // in which this artwork is being transfered\n        // \n        // The creator property must never be changed. It is immutable\n        address creator;    \n        \n        // The owner can change because the artwork can be transfered.\n        address owner;\n        \n        bytes32 imageLink;      // IPFS link\n        bytes32 title;          // The name of this piece\n        bytes32 description;    // Some explanatory notes\n    }\n    \n    /**\n        This represents bids that can be done during \n        an auction\n    */\n    struct Bid {\n        address sender;\n        uint256 value;\n    }\n    \n    enum AuctionState { Active, Ended }\n    \n    struct Auction {\n        address owner;          // The person that started the auction\n        uint256 artworkID;      // The id of the art piece that is being auctioned\n        uint256 initialPrice;   // The initial price to start bidding\n        uint256 endTimestamp;   // The endtime of the auction\n        AuctionState state;     // The current auction state\n    }\n    \n    // ==================================\n    //          ATTRIBUTES\n    // ==================================\n    \n    // This is important because we need every artwork to be unique.\n    // So every artwork has an 'id' property that is equal to the \n    // number of artworks in this contract\n    uint256 public artworkCount = 0;\n    uint256 public auctionsCount = 0;\n    \n    mapping(uint256 => Artwork) public artwork;                 // This allows us to get an artwork from its id\n    mapping(address => uint256[]) public portfolioOf;           // This allows us to get the ids of the artwork of a specific user\n    mapping(address => Profile) public profileOf;               // Profiles for each address\n    mapping(address => uint256) public refundsFor;              // Ether that people can withdraw\n    mapping(uint256 => Auction) public auctionWithID;           //\n    mapping(address => uint256[]) public auctionsOf;            //\n    mapping(uint256 => Bid) public currentBidForAuctionWithID;  //\n\n    uint256[] public activeAuctions;                                  //\n    uint256[] public endedAuctions;\n    \n    // ==================================\n    //          EVENTS\n    // ==================================\n    \n    event LogNewBid(uint256 auctionID, address sender, uint256 value);\n    event LogOpenedAuction(uint256 auctionID);\n    event LogEndedAuction(uint256 auctionID);\n    \n    // ==================================\n    //          CONSTRUCTORS\n    // ==================================\n    \n    function Darticles() public {}\n    \n    // ==================================\n    //          MUTATING FUNCTIONS\n    // ==================================\n    \n    /**\n        \n    */\n    function setProfile \n    (\n        bytes32 _profileImageLink, \n        bytes32 _firstName, \n        bytes32 _lastName, \n        bytes32 _nickName\n    )   \n        public \n    {\n        var profile = Profile(_profileImageLink, _firstName, _lastName, _nickName);\n        profileOf[msg.sender] = profile;\n    }\n    \n    /**\n        This contract implements the withdraw pattern,\n        in order to avoid issues related with send/transfer done in place\n    */\n    function withdraw(uint256 _amount) public returns (bool) {\n        require(refundsFor[msg.sender] >= _amount);\n        refundsFor[msg.sender] -= _amount;\n        msg.sender.transfer(_amount);\n        return true;\n    }\n    \n    // OK\n    function addArtwork(bytes32 _imageLink, bytes32 _title, bytes32 _description) public {\n        uint256 _id = artworkCount++;\n        var _artwork = Artwork({\n            creator         : msg.sender, \n            owner           : msg.sender, \n            imageLink       : _imageLink, \n            title           : _title, \n            description     : _description\n        });\n        artwork[_id] = _artwork;\n        portfolioOf[msg.sender].push(_id);\n    }\n    \n\n    function transferArtwork(address _to, uint256 _id) public {\n        uint256 index = getIndexForArtworkInSenderPortfolio(_id);\n        require (index != portfolioOf[msg.sender].length); // The artwork was not found\n        artwork[_id].owner = _to;\n        portfolioOf[_to].push(_id);\n        delete(portfolioOf[msg.sender][index]);\n    }\n    \n    function getIndexForArtworkInSenderPortfolio(uint256 _id) private view returns (uint256) {\n        var idsForSender = portfolioOf[msg.sender]; // Los ids de las obras del sender\n        uint256 index = 0;\n        while (idsForSender[index] != _id && index < idsForSender.length) { // aca recorro los ids de las obras\n            index++;\n        }\n        return index;\n    }\n    \n    function createEmptyBid() private pure returns (Bid) {\n        return Bid({\n            sender: address(0),\n            value: 0\n        });\n    }\n    \n    function startAuction(\n        uint256 _artworkID, \n        uint256 _initialPrice, \n        uint256 _endTimestamp\n    )   \n        public \n        senderHasArtworkWithID(_artworkID)\n    {\n        var auction = Auction({\n            owner           : msg.sender,\n            artworkID       : _artworkID,\n            initialPrice    : _initialPrice,\n            endTimestamp    : _endTimestamp,\n            state           : AuctionState.Active\n        });\n        \n        uint256 auctionID = auctionsCount++;\n        currentBidForAuctionWithID[auctionID] = createEmptyBid();\n        activeAuctions.push(auctionID);\n        auctionsOf[msg.sender].push(auctionID);\n        auctionWithID[auctionID] = auction;\n        LogOpenedAuction(auctionID);\n    }\n\n    function getIndexForAuctionInActiveArray(uint256 _auctionID) private view returns (uint256) {\n        uint256 index = 0;\n        while (activeAuctions[index] != _auctionID && index < activeAuctions.length) {\n            index++;\n        }\n        return index;\n    }\n    \n    function endAuction(uint256 _auctionID) public {\n        var auction = auctionWithID[_auctionID];\n\n        uint256 index = getIndexForAuctionInActiveArray(_auctionID);\n        require(index != activeAuctions.length); \n\n        require(currentBidForAuctionWithID[_auctionID].sender == msg.sender);\n        require(auction.state == AuctionState.Active);\n        require(now > auction.endTimestamp);\n        auction.state = AuctionState.Ended;\n        \n        var bidValue = currentBidForAuctionWithID[_auctionID].value;\n        \n        endedAuctions.push(_auctionID);\n        delete(activeAuctions[index]);\n\n        var _artwork = artwork[auction.artworkID];\n        refundsFor[_artwork.creator] = bidValue * 15 / 100;\n        refundsFor[_artwork.owner] = bidValue * 85 / 100;\n        transferArtwork(msg.sender, auction.artworkID);\n\n        LogEndedAuction(_auctionID);\n    }\n    \n    function makeBid(uint256 _auctionID) public payable {\n        var _auction = auctionWithID[_auctionID];\n        \n        require(msg.value >= _auction.initialPrice);\n        require(msg.value > currentBidForAuctionWithID[_auctionID].value);\n        \n        refundsFor[currentBidForAuctionWithID[_auctionID].sender] = currentBidForAuctionWithID[_auctionID].value;\n        \n        var bid = Bid({\n            sender: msg.sender,\n            value: msg.value\n        });\n        \n        currentBidForAuctionWithID[_auctionID] = bid;\n        LogNewBid(_auctionID, msg.sender, msg.value);\n    }\n    \n    // ==================================\n    //          CONSTANT FUNCTIONS\n    // ==================================\n    \n    /**\n        Returns the profile of the caller.\n    */\n    function getProfile() public view returns (Profile) {\n        return profileOf[msg.sender];\n    }\n\n    function getActiveAuctions() public view returns (uint256[]) {\n        return activeAuctions;\n    }\n\n    function getEndedAuctions() public view returns (uint256[]) {\n        return endedAuctions;\n    }\n\n    function getPortfolio() public view returns (uint256[]) {\n        return portfolioOf[msg.sender];\n    }\n    \n    // ==================================\n    //              MODIFIERS\n    // ==================================\n    \n    modifier senderHasArtworkWithID(uint256 _id) {\n        require(getIndexForArtworkInSenderPortfolio(_id) != portfolioOf[msg.sender].length);\n        _;\n    }\n    \n}",
  "sourcePath": "/Users/fernando-chan/Documents/pruebas/blockchain/curso/Darticles/contracts/Darticles.sol",
  "compiler": {
    "name": "solc",
    "version": "0.4.18+commit.9cf6e910.Emscripten.clang"
  },
  "schemaVersion": "1.0.1",
  "updatedAt": "2017-11-21T22:35:54.245Z"
}