{
  "contractName": "Darticles",
  "abi": [
    {
      "constant": false,
      "inputs": [
        {
          "name": "_to",
          "type": "address"
        },
        {
          "name": "_id",
          "type": "uint256"
        }
      ],
      "name": "transferArtwork",
      "outputs": [],
      "payable": false,
      "stateMutability": "nonpayable",
      "type": "function"
    },
    {
      "constant": true,
      "inputs": [
        {
          "name": "_artworkID",
          "type": "uint256"
        }
      ],
      "name": "getArtworkWithID",
      "outputs": [
        {
          "name": "",
          "type": "bytes32"
        }
      ],
      "payable": false,
      "stateMutability": "view",
      "type": "function"
    },
    {
      "constant": true,
      "inputs": [
        {
          "name": "",
          "type": "uint256"
        }
      ],
      "name": "currentBidForAuctionWithID",
      "outputs": [
        {
          "name": "sender",
          "type": "address"
        },
        {
          "name": "value",
          "type": "uint256"
        }
      ],
      "payable": false,
      "stateMutability": "view",
      "type": "function"
    },
    {
      "constant": false,
      "inputs": [
        {
          "name": "_auctionID",
          "type": "uint256"
        }
      ],
      "name": "makeBid",
      "outputs": [],
      "payable": true,
      "stateMutability": "payable",
      "type": "function"
    },
    {
      "constant": false,
      "inputs": [
        {
          "name": "_amount",
          "type": "uint256"
        }
      ],
      "name": "withdraw",
      "outputs": [
        {
          "name": "",
          "type": "bool"
        }
      ],
      "payable": false,
      "stateMutability": "nonpayable",
      "type": "function"
    },
    {
      "constant": true,
      "inputs": [
        {
          "name": "",
          "type": "address"
        }
      ],
      "name": "profileOf",
      "outputs": [
        {
          "name": "imageLink",
          "type": "bytes32"
        },
        {
          "name": "firstName",
          "type": "bytes32"
        },
        {
          "name": "lastName",
          "type": "bytes32"
        },
        {
          "name": "nickName",
          "type": "bytes32"
        }
      ],
      "payable": false,
      "stateMutability": "view",
      "type": "function"
    },
    {
      "constant": false,
      "inputs": [
        {
          "name": "_imageLink",
          "type": "bytes32"
        },
        {
          "name": "_title",
          "type": "bytes32"
        },
        {
          "name": "_description",
          "type": "bytes32"
        }
      ],
      "name": "addArtwork",
      "outputs": [],
      "payable": false,
      "stateMutability": "nonpayable",
      "type": "function"
    },
    {
      "constant": true,
      "inputs": [
        {
          "name": "",
          "type": "uint256"
        }
      ],
      "name": "endedAuctions",
      "outputs": [
        {
          "name": "",
          "type": "uint256"
        }
      ],
      "payable": false,
      "stateMutability": "view",
      "type": "function"
    },
    {
      "constant": true,
      "inputs": [
        {
          "name": "",
          "type": "uint256"
        }
      ],
      "name": "artwork",
      "outputs": [
        {
          "name": "creator",
          "type": "address"
        },
        {
          "name": "owner",
          "type": "address"
        },
        {
          "name": "imageLink",
          "type": "bytes32"
        },
        {
          "name": "title",
          "type": "bytes32"
        },
        {
          "name": "description",
          "type": "bytes32"
        }
      ],
      "payable": false,
      "stateMutability": "view",
      "type": "function"
    },
    {
      "constant": true,
      "inputs": [
        {
          "name": "",
          "type": "uint256"
        }
      ],
      "name": "activeAuctions",
      "outputs": [
        {
          "name": "",
          "type": "uint256"
        }
      ],
      "payable": false,
      "stateMutability": "view",
      "type": "function"
    },
    {
      "constant": true,
      "inputs": [
        {
          "name": "",
          "type": "address"
        },
        {
          "name": "",
          "type": "uint256"
        }
      ],
      "name": "auctionsOf",
      "outputs": [
        {
          "name": "",
          "type": "uint256"
        }
      ],
      "payable": false,
      "stateMutability": "view",
      "type": "function"
    },
    {
      "constant": false,
      "inputs": [
        {
          "name": "_artworkID",
          "type": "uint256"
        },
        {
          "name": "_initialPrice",
          "type": "uint256"
        },
        {
          "name": "_endTimestamp",
          "type": "uint256"
        }
      ],
      "name": "startAuction",
      "outputs": [],
      "payable": false,
      "stateMutability": "nonpayable",
      "type": "function"
    },
    {
      "constant": true,
      "inputs": [],
      "name": "artworkCount",
      "outputs": [
        {
          "name": "",
          "type": "uint256"
        }
      ],
      "payable": false,
      "stateMutability": "view",
      "type": "function"
    },
    {
      "constant": true,
      "inputs": [
        {
          "name": "",
          "type": "uint256"
        }
      ],
      "name": "auctionWithID",
      "outputs": [
        {
          "name": "owner",
          "type": "address"
        },
        {
          "name": "artworkID",
          "type": "uint256"
        },
        {
          "name": "initialPrice",
          "type": "uint256"
        },
        {
          "name": "endTimestamp",
          "type": "uint256"
        },
        {
          "name": "state",
          "type": "uint8"
        }
      ],
      "payable": false,
      "stateMutability": "view",
      "type": "function"
    },
    {
      "constant": true,
      "inputs": [],
      "name": "auctionsCount",
      "outputs": [
        {
          "name": "",
          "type": "uint256"
        }
      ],
      "payable": false,
      "stateMutability": "view",
      "type": "function"
    },
    {
      "constant": false,
      "inputs": [
        {
          "name": "_auctionID",
          "type": "uint256"
        }
      ],
      "name": "endAuction",
      "outputs": [],
      "payable": false,
      "stateMutability": "nonpayable",
      "type": "function"
    },
    {
      "constant": true,
      "inputs": [],
      "name": "getActiveAuctions",
      "outputs": [
        {
          "name": "",
          "type": "uint256[]"
        }
      ],
      "payable": false,
      "stateMutability": "view",
      "type": "function"
    },
    {
      "constant": true,
      "inputs": [
        {
          "name": "",
          "type": "address"
        },
        {
          "name": "",
          "type": "uint256"
        }
      ],
      "name": "portfolioOf",
      "outputs": [
        {
          "name": "",
          "type": "uint256"
        }
      ],
      "payable": false,
      "stateMutability": "view",
      "type": "function"
    },
    {
      "constant": true,
      "inputs": [
        {
          "name": "",
          "type": "address"
        }
      ],
      "name": "refundsFor",
      "outputs": [
        {
          "name": "",
          "type": "uint256"
        }
      ],
      "payable": false,
      "stateMutability": "view",
      "type": "function"
    },
    {
      "constant": true,
      "inputs": [],
      "name": "getPortfolio",
      "outputs": [
        {
          "name": "",
          "type": "uint256[]"
        }
      ],
      "payable": false,
      "stateMutability": "view",
      "type": "function"
    },
    {
      "constant": true,
      "inputs": [],
      "name": "getProfile",
      "outputs": [
        {
          "name": "",
          "type": "bytes32"
        },
        {
          "name": "",
          "type": "bytes32"
        },
        {
          "name": "",
          "type": "bytes32"
        },
        {
          "name": "",
          "type": "bytes32"
        }
      ],
      "payable": false,
      "stateMutability": "view",
      "type": "function"
    },
    {
      "constant": false,
      "inputs": [
        {
          "name": "_profileImageLink",
          "type": "bytes32"
        },
        {
          "name": "_firstName",
          "type": "bytes32"
        },
        {
          "name": "_lastName",
          "type": "bytes32"
        },
        {
          "name": "_nickName",
          "type": "bytes32"
        }
      ],
      "name": "setProfile",
      "outputs": [],
      "payable": false,
      "stateMutability": "nonpayable",
      "type": "function"
    },
    {
      "constant": true,
      "inputs": [
        {
          "name": "_auctionID",
          "type": "uint256"
        }
      ],
      "name": "getAuctionWithID",
      "outputs": [
        {
          "name": "",
          "type": "bytes32"
        },
        {
          "name": "",
          "type": "uint256"
        },
        {
          "name": "",
          "type": "uint256"
        },
        {
          "name": "",
          "type": "uint256"
        },
        {
          "name": "",
          "type": "bytes32"
        }
      ],
      "payable": false,
      "stateMutability": "view",
      "type": "function"
    },
    {
      "constant": true,
      "inputs": [],
      "name": "getEndedAuctions",
      "outputs": [
        {
          "name": "",
          "type": "uint256[]"
        }
      ],
      "payable": false,
      "stateMutability": "view",
      "type": "function"
    },
    {
      "inputs": [],
      "payable": false,
      "stateMutability": "nonpayable",
      "type": "constructor"
    },
    {
      "anonymous": false,
      "inputs": [
        {
          "indexed": false,
          "name": "auctionID",
          "type": "uint256"
        },
        {
          "indexed": false,
          "name": "sender",
          "type": "address"
        },
        {
          "indexed": false,
          "name": "value",
          "type": "uint256"
        }
      ],
      "name": "LogNewBid",
      "type": "event"
    },
    {
      "anonymous": false,
      "inputs": [
        {
          "indexed": false,
          "name": "auctionID",
          "type": "uint256"
        }
      ],
      "name": "LogOpenedAuction",
      "type": "event"
    },
    {
      "anonymous": false,
      "inputs": [
        {
          "indexed": false,
          "name": "auctionID",
          "type": "uint256"
        }
      ],
      "name": "LogEndedAuction",
      "type": "event"
    }
  ],
  "bytecode": "0x6060604052600f6000556000600155341561001957600080fd5b33600b60006101000a81548173ffffffffffffffffffffffffffffffffffffffff021916908373ffffffffffffffffffffffffffffffffffffffff160217905550611e33806100696000396000f30060606040526004361061013e576000357c0100000000000000000000000000000000000000000000000000000000900463ffffffff1680630c45ed0714610143578063147e99a714610185578063155b1a73146101c4578063175b23041461022e5780632e1a7d4d146102465780632f8eb9cb146102815780632ff747851461030357806337df273b1461034457806354682d721461037b578063790d85961461043e5780638501313f1461047557806391e078bb146104cb578063a087644514610500578063b0985e5d14610529578063b830620a146105b6578063b9a2de3a146105df578063cf44b5d514610602578063d2d8fca31461066c578063d2e7700c146106c2578063d3d034581461070f578063d6afc9b114610779578063d8754832146107d7578063d96cfccf14610825578063f10a69ec14610888575b600080fd5b341561014e57600080fd5b610183600480803573ffffffffffffffffffffffffffffffffffffffff169060200190919080359060200190919050506108f2565b005b341561019057600080fd5b6101a66004808035906020019091905050610a6b565b60405180826000191660001916815260200191505060405180910390f35b34156101cf57600080fd5b6101e56004808035906020019091905050610a90565b604051808373ffffffffffffffffffffffffffffffffffffffff1673ffffffffffffffffffffffffffffffffffffffff1681526020018281526020019250505060405180910390f35b6102446004808035906020019091905050610ad4565b005b341561025157600080fd5b6102676004808035906020019091905050610cc7565b604051808215151515815260200191505060405180910390f35b341561028c57600080fd5b6102b8600480803573ffffffffffffffffffffffffffffffffffffffff16906020019091905050610dad565b60405180856000191660001916815260200184600019166000191681526020018360001916600019168152602001826000191660001916815260200194505050505060405180910390f35b341561030e57600080fd5b6103426004808035600019169060200190919080356000191690602001909190803560001916906020019091905050610ddd565b005b341561034f57600080fd5b6103656004808035906020019091905050610f9d565b6040518082815260200191505060405180910390f35b341561038657600080fd5b61039c6004808035906020019091905050610fc1565b604051808673ffffffffffffffffffffffffffffffffffffffff1673ffffffffffffffffffffffffffffffffffffffff1681526020018573ffffffffffffffffffffffffffffffffffffffff1673ffffffffffffffffffffffffffffffffffffffff1681526020018460001916600019168152602001836000191660001916815260200182600019166000191681526020019550505050505060405180910390f35b341561044957600080fd5b61045f6004808035906020019091905050611037565b6040518082815260200191505060405180910390f35b341561048057600080fd5b6104b5600480803573ffffffffffffffffffffffffffffffffffffffff1690602001909190803590602001909190505061105b565b6040518082815260200191505060405180910390f35b34156104d657600080fd5b6104fe600480803590602001909190803590602001909190803590602001909190505061108c565b005b341561050b57600080fd5b610513611331565b6040518082815260200191505060405180910390f35b341561053457600080fd5b61054a6004808035906020019091905050611337565b604051808673ffffffffffffffffffffffffffffffffffffffff1673ffffffffffffffffffffffffffffffffffffffff16815260200185815260200184815260200183815260200182600181111561059e57fe5b60ff1681526020019550505050505060405180910390f35b34156105c157600080fd5b6105c961139a565b6040518082815260200191505060405180910390f35b34156105ea57600080fd5b61060060048080359060200190919050506113a0565b005b341561060d57600080fd5b6106156116e0565b6040518080602001828103825283818151815260200191508051906020019060200280838360005b8381101561065857808201518184015260208101905061063d565b505050509050019250505060405180910390f35b341561067757600080fd5b6106ac600480803573ffffffffffffffffffffffffffffffffffffffff1690602001909190803590602001909190505061173e565b6040518082815260200191505060405180910390f35b34156106cd57600080fd5b6106f9600480803573ffffffffffffffffffffffffffffffffffffffff1690602001909190505061176f565b6040518082815260200191505060405180910390f35b341561071a57600080fd5b610722611787565b6040518080602001828103825283818151815260200191508051906020019060200280838360005b8381101561076557808201518184015260208101905061074a565b505050509050019250505060405180910390f35b341561078457600080fd5b61078c611822565b60405180856000191660001916815260200184600019166000191681526020018360001916600019168152602001826000191660001916815260200194505050505060405180910390f35b34156107e257600080fd5b610823600480803560001916906020019091908035600019169060200190919080356000191690602001909190803560001916906020019091905050611942565b005b341561083057600080fd5b6108466004808035906020019091905050611a08565b60405180866000191660001916815260200185815260200184815260200183815260200182600019166000191681526020019550505050505060405180910390f35b341561089357600080fd5b61089b611b0b565b6040518080602001828103825283818151815260200191508051906020019060200280838360005b838110156108de5780820151818401526020810190506108c3565b505050509050019250505060405180910390f35b60006108fd82611b69565b9050600360003373ffffffffffffffffffffffffffffffffffffffff1673ffffffffffffffffffffffffffffffffffffffff16815260200190815260200160002080549050811415151561095057600080fd5b826002600084815260200190815260200160002060010160006101000a81548173ffffffffffffffffffffffffffffffffffffffff021916908373ffffffffffffffffffffffffffffffffffffffff160217905550600360008473ffffffffffffffffffffffffffffffffffffffff1673ffffffffffffffffffffffffffffffffffffffff16815260200190815260200160002080548060010182816109f69190611c87565b916000526020600020900160008490919091505550600360003373ffffffffffffffffffffffffffffffffffffffff1673ffffffffffffffffffffffffffffffffffffffff16815260200190815260200160002081815481101515610a5757fe5b906000526020600020900160009055505050565b6000806002600084815260200190815260200160002090508060020154915050919050565b60086020528060005260406000206000915090508060000160009054906101000a900473ffffffffffffffffffffffffffffffffffffffff16908060010154905082565b6000610ade611cb3565b60066000848152602001908152602001600020915081600201543410151515610b0657600080fd5b600860008481526020019081526020016000206001015434111515610b2a57600080fd5b6008600084815260200190815260200160002060010154600560006008600087815260200190815260200160002060000160009054906101000a900473ffffffffffffffffffffffffffffffffffffffff1673ffffffffffffffffffffffffffffffffffffffff1673ffffffffffffffffffffffffffffffffffffffff1681526020019081526020016000208190555060408051908101604052803373ffffffffffffffffffffffffffffffffffffffff168152602001348152509050806008600085815260200190815260200160002060008201518160000160006101000a81548173ffffffffffffffffffffffffffffffffffffffff021916908373ffffffffffffffffffffffffffffffffffffffff160217905550602082015181600101559050507f090ec43cb417274eade7675318bc57417abf3a3529ee7a6a18084c63ba82a115833334604051808481526020018373ffffffffffffffffffffffffffffffffffffffff1673ffffffffffffffffffffffffffffffffffffffff168152602001828152602001935050505060405180910390a1505050565b600081600560003373ffffffffffffffffffffffffffffffffffffffff1673ffffffffffffffffffffffffffffffffffffffff1681526020019081526020016000205410151515610d1757600080fd5b81600560003373ffffffffffffffffffffffffffffffffffffffff1673ffffffffffffffffffffffffffffffffffffffff168152602001908152602001600020600082825403925050819055503373ffffffffffffffffffffffffffffffffffffffff166108fc839081150290604051600060405180830381858888f193505050501515610da457600080fd5b60019050919050565b60046020528060005260406000206000915090508060000154908060010154908060020154908060030154905084565b6000610de7611ce3565b60008081548092919060010191905055915060a0604051908101604052803373ffffffffffffffffffffffffffffffffffffffff1681526020013373ffffffffffffffffffffffffffffffffffffffff168152602001866000191681526020018560001916815260200184600019168152509050806002600084815260200190815260200160002060008201518160000160006101000a81548173ffffffffffffffffffffffffffffffffffffffff021916908373ffffffffffffffffffffffffffffffffffffffff16021790555060208201518160010160006101000a81548173ffffffffffffffffffffffffffffffffffffffff021916908373ffffffffffffffffffffffffffffffffffffffff160217905550604082015181600201906000191690556060820151816003019060001916905560808201518160040190600019169055905050600360003373ffffffffffffffffffffffffffffffffffffffff1673ffffffffffffffffffffffffffffffffffffffff1681526020019081526020016000208054806001018281610f819190611c87565b9160005260206000209001600084909190915055505050505050565b600a81815481101515610fac57fe5b90600052602060002090016000915090505481565b60026020528060005260406000206000915090508060000160009054906101000a900473ffffffffffffffffffffffffffffffffffffffff16908060010160009054906101000a900473ffffffffffffffffffffffffffffffffffffffff16908060020154908060030154908060040154905085565b60098181548110151561104657fe5b90600052602060002090016000915090505481565b60076020528160005260406000208181548110151561107657fe5b9060005260206000209001600091509150505481565b611094611d48565b600084600360003373ffffffffffffffffffffffffffffffffffffffff1673ffffffffffffffffffffffffffffffffffffffff168152602001908152602001600020805490506110e382611b69565b141515156110f057600080fd5b60a0604051908101604052803373ffffffffffffffffffffffffffffffffffffffff1681526020018781526020018681526020018581526020016000600181111561113757fe5b815250925060016000815480929190600101919050559150611157611bfc565b6008600084815260200190815260200160002060008201518160000160006101000a81548173ffffffffffffffffffffffffffffffffffffffff021916908373ffffffffffffffffffffffffffffffffffffffff16021790555060208201518160010155905050600980548060010182816111d29190611c87565b916000526020600020900160008490919091505550600760003373ffffffffffffffffffffffffffffffffffffffff1673ffffffffffffffffffffffffffffffffffffffff16815260200190815260200160002080548060010182816112389190611c87565b916000526020600020900160008490919091505550826006600084815260200190815260200160002060008201518160000160006101000a81548173ffffffffffffffffffffffffffffffffffffffff021916908373ffffffffffffffffffffffffffffffffffffffff16021790555060208201518160010155604082015181600201556060820151816003015560808201518160040160006101000a81548160ff021916908360018111156112ea57fe5b02179055509050507f48afd63446a8413b3da01a91b49806994f7a6d83136e0c7cb473b4f8331825d5826040518082815260200191505060405180910390a1505050505050565b60005481565b60066020528060005260406000206000915090508060000160009054906101000a900473ffffffffffffffffffffffffffffffffffffffff16908060010154908060020154908060030154908060040160009054906101000a900460ff16905085565b60015481565b6000806000806006600086815260200190815260200160002093506113c485611c36565b925060098054905083141515156113da57600080fd5b3373ffffffffffffffffffffffffffffffffffffffff166008600087815260200190815260200160002060000160009054906101000a900473ffffffffffffffffffffffffffffffffffffffff1673ffffffffffffffffffffffffffffffffffffffff1614151561144a57600080fd5b6000600181111561145757fe5b8460040160009054906101000a900460ff16600181111561147457fe5b14151561148057600080fd5b83600301544211151561149257600080fd5b60018460040160006101000a81548160ff021916908360018111156114b357fe5b021790555060086000868152602001908152602001600020600101549150600a80548060010182816114e59190611c87565b91600052602060002090016000879091909150555060098381548110151561150957fe5b906000526020600020900160009055600260008560010154815260200190815260200160002090506064600a830281151561154057fe5b04600560008360000160009054906101000a900473ffffffffffffffffffffffffffffffffffffffff1673ffffffffffffffffffffffffffffffffffffffff1673ffffffffffffffffffffffffffffffffffffffff168152602001908152602001600020819055506064605583028115156115b757fe5b04600560008360010160009054906101000a900473ffffffffffffffffffffffffffffffffffffffff1673ffffffffffffffffffffffffffffffffffffffff1673ffffffffffffffffffffffffffffffffffffffff1681526020019081526020016000208190555060646005830281151561162e57fe5b0460056000600b60009054906101000a900473ffffffffffffffffffffffffffffffffffffffff1673ffffffffffffffffffffffffffffffffffffffff1673ffffffffffffffffffffffffffffffffffffffff168152602001908152602001600020819055506116a23385600101546108f2565b7f730d208f40f6acacc34f74a93423e04e31c6d1b75abdd7e1201bf43a23b71ea1856040518082815260200191505060405180910390a15050505050565b6116e8611d99565b600980548060200260200160405190810160405280929190818152602001828054801561173457602002820191906000526020600020905b815481526020019060010190808311611720575b5050505050905090565b60036020528160005260406000208181548110151561175957fe5b9060005260206000209001600091509150505481565b60056020528060005260406000206000915090505481565b61178f611d99565b600360003373ffffffffffffffffffffffffffffffffffffffff1673ffffffffffffffffffffffffffffffffffffffff16815260200190815260200160002080548060200260200160405190810160405280929190818152602001828054801561181857602002820191906000526020600020905b815481526020019060010190808311611804575b5050505050905090565b600080600080600460003373ffffffffffffffffffffffffffffffffffffffff1673ffffffffffffffffffffffffffffffffffffffff16815260200190815260200160002060000154600460003373ffffffffffffffffffffffffffffffffffffffff1673ffffffffffffffffffffffffffffffffffffffff16815260200190815260200160002060010154600460003373ffffffffffffffffffffffffffffffffffffffff1673ffffffffffffffffffffffffffffffffffffffff16815260200190815260200160002060020154600460003373ffffffffffffffffffffffffffffffffffffffff1673ffffffffffffffffffffffffffffffffffffffff16815260200190815260200160002060030154935093509350935090919293565b61194a611dad565b6080604051908101604052808660001916815260200185600019168152602001846000191681526020018360001916815250905080600460003373ffffffffffffffffffffffffffffffffffffffff1673ffffffffffffffffffffffffffffffffffffffff168152602001908152602001600020600082015181600001906000191690556020820151816001019060001916905560408201518160020190600019169055606082015181600301906000191690559050505050505050565b60008060008060008060006006600089815260200190815260200160002091506000905060006001811115611a3957fe5b8260040160009054906101000a900460ff166001811115611a5657fe5b1415611a84577f41637469766500000000000000000000000000000000000000000000000000009050611aa8565b7f456e64656400000000000000000000000000000000000000000000000000000090505b8160000160009054906101000a900473ffffffffffffffffffffffffffffffffffffffff1673ffffffffffffffffffffffffffffffffffffffff166001028260010154836002015484600301548496509650965096509650505091939590929450565b611b13611d99565b600a805480602002602001604051908101604052809291908181526020018280548015611b5f57602002820191906000526020600020905b815481526020019060010190808311611b4b575b5050505050905090565b6000806000600360003373ffffffffffffffffffffffffffffffffffffffff1673ffffffffffffffffffffffffffffffffffffffff1681526020019081526020016000209150600090505b838282815481101515611bc357fe5b90600052602060002090015414158015611be05750818054905081105b15611bf2578080600101915050611bb4565b8092505050919050565b611c04611cb3565b6040805190810160405280600073ffffffffffffffffffffffffffffffffffffffff1681526020016000815250905090565b600080600090505b82600982815481101515611c4e57fe5b90600052602060002090015414158015611c6c575060098054905081105b15611c7e578080600101915050611c3e565b80915050919050565b815481835581811511611cae57818360005260206000209182019101611cad9190611de2565b5b505050565b6040805190810160405280600073ffffffffffffffffffffffffffffffffffffffff168152602001600081525090565b60a060405190810160405280600073ffffffffffffffffffffffffffffffffffffffff168152602001600073ffffffffffffffffffffffffffffffffffffffff1681526020016000801916815260200160008019168152602001600080191681525090565b60a060405190810160405280600073ffffffffffffffffffffffffffffffffffffffff16815260200160008152602001600081526020016000815260200160006001811115611d9357fe5b81525090565b602060405190810160405280600081525090565b608060405190810160405280600080191681526020016000801916815260200160008019168152602001600080191681525090565b611e0491905b80821115611e00576000816000905550600101611de8565b5090565b905600a165627a7a7230582047354f5de4335a044b2299e5388aa3e25fd303dc654a7c562fba7c4129b327d30029",
  "source": "pragma solidity ^0.4.18;\n\ncontract Darticles {\n    \n    // ==================================\n    //          DATA STRUCTURES\n    // ==================================\n    \n    /**\n        Profile represents user's information,\n        No matter if he/she is an artist or\n        an art collectionist\n    */\n    struct Profile {\n        bytes32 imageLink;   // IPFS link\n        bytes32 firstName;\n        bytes32 lastName;\n        bytes32 nickName;\n    }\n    \n    /**\n        The artwork represents the art pieces that \n        and artist created.\n        \n        An artwork can be auctioned.\n    */\n    struct Artwork {\n        // It is important to always keep track of the artwork creator, \n        // since this address can be rewarded on every auction \n        // in which this artwork is being transfered\n        // \n        // The creator property must never be changed. It is immutable\n        address creator;    \n        \n        // The owner can change because the artwork can be transfered.\n        address owner;\n        \n        bytes32 imageLink;      // IPFS link\n        bytes32 title;          // The name of this piece\n        bytes32 description;    // Some explanatory notes\n    }\n    \n    /**\n        This represents bids that can be done during \n        an auction\n    */\n    struct Bid {\n        address sender;\n        uint256 value;\n    }\n    \n    enum AuctionState { Active, Ended }\n    \n    struct Auction {\n        address owner;          // The person that started the auction\n        uint256 artworkID;      // The id of the art piece that is being auctioned\n        uint256 initialPrice;   // The initial price to start bidding\n        uint256 endTimestamp;   // The endtime of the auction\n        AuctionState state;     // The current auction state\n    }\n    \n    // ==================================\n    //          ATTRIBUTES\n    // ==================================\n    \n    // This is important because we need every artwork to be unique.\n    // So every artwork has an 'id' property that is equal to the \n    // number of artworks in this contract\n    uint256 public artworkCount = 15;\n    uint256 public auctionsCount = 0;\n    \n    mapping(uint256 => Artwork) public artwork;                 // This allows us to get an artwork from its id\n    mapping(address => uint256[]) public portfolioOf;           // This allows us to get the ids of the artwork of a specific user\n    mapping(address => Profile) public profileOf;               // Profiles for each address\n    mapping(address => uint256) public refundsFor;              // Ether that people can withdraw\n    mapping(uint256 => Auction) public auctionWithID;           //\n    mapping(address => uint256[]) public auctionsOf;            //\n    mapping(uint256 => Bid) public currentBidForAuctionWithID;  //\n\n    uint256[] public activeAuctions;                                  //\n    uint256[] public endedAuctions;\n\n    address owner;\n    \n    // ==================================\n    //          EVENTS\n    // ==================================\n    \n    event LogNewBid(uint256 auctionID, address sender, uint256 value);\n    event LogOpenedAuction(uint256 auctionID);\n    event LogEndedAuction(uint256 auctionID);\n    \n    // ==================================\n    //          CONSTRUCTORS\n    // ==================================\n    \n    function Darticles() public {\n        owner = msg.sender;\n    }\n    \n    // ==================================\n    //          MUTATING FUNCTIONS\n    // ==================================\n    \n    /**\n        \n    */\n    function setProfile \n    (\n        bytes32 _profileImageLink, \n        bytes32 _firstName, \n        bytes32 _lastName, \n        bytes32 _nickName\n    )   \n        public \n    {\n        var profile = Profile(_profileImageLink, _firstName, _lastName, _nickName);\n        profileOf[msg.sender] = profile;\n    }\n    \n    /**\n        This contract implements the withdraw pattern,\n        in order to avoid issues related with send/transfer done in place\n    */\n    function withdraw(uint256 _amount) public returns (bool) {\n        require(refundsFor[msg.sender] >= _amount);\n        refundsFor[msg.sender] -= _amount;\n        msg.sender.transfer(_amount);\n        return true;\n    }\n    \n    // OK\n    function addArtwork(bytes32 _imageLink, bytes32 _title, bytes32 _description) public {\n        uint256 _id = artworkCount++;\n        var _artwork = Artwork({\n            creator         : msg.sender, \n            owner           : msg.sender, \n            imageLink       : _imageLink, \n            title           : _title, \n            description     : _description\n        });\n        artwork[_id] = _artwork;\n        portfolioOf[msg.sender].push(_id);\n    }\n    \n\n    function transferArtwork(address _to, uint256 _id) public {\n        uint256 index = getIndexForArtworkInSenderPortfolio(_id);\n        require (index != portfolioOf[msg.sender].length); // The artwork was not found\n        artwork[_id].owner = _to;\n        portfolioOf[_to].push(_id);\n        delete(portfolioOf[msg.sender][index]);\n    }\n    \n    function getIndexForArtworkInSenderPortfolio(uint256 _id) private view returns (uint256) {\n        var idsForSender = portfolioOf[msg.sender]; // Los ids de las obras del sender\n        uint256 index = 0;\n        while (idsForSender[index] != _id && index < idsForSender.length) { // aca recorro los ids de las obras\n            index++;\n        }\n        return index;\n    }\n    \n    function createEmptyBid() private pure returns (Bid) {\n        return Bid({\n            sender: address(0),\n            value: 0\n        });\n    }\n    \n    function startAuction(\n        uint256 _artworkID, \n        uint256 _initialPrice, \n        uint256 _endTimestamp\n    )   \n        public \n        senderHasArtworkWithID(_artworkID)\n    {\n        var auction = Auction({\n            owner           : msg.sender,\n            artworkID       : _artworkID,\n            initialPrice    : _initialPrice,\n            endTimestamp    : _endTimestamp,\n            state           : AuctionState.Active\n        });\n        \n        uint256 auctionID = auctionsCount++;\n        currentBidForAuctionWithID[auctionID] = createEmptyBid();\n        activeAuctions.push(auctionID);\n        auctionsOf[msg.sender].push(auctionID);\n        auctionWithID[auctionID] = auction;\n        LogOpenedAuction(auctionID);\n    }\n\n    function getIndexForAuctionInActiveArray(uint256 _auctionID) private view returns (uint256) {\n        uint256 index = 0;\n        while (activeAuctions[index] != _auctionID && index < activeAuctions.length) {\n            index++;\n        }\n        return index;\n    }\n    \n    function endAuction(uint256 _auctionID) public {\n        var auction = auctionWithID[_auctionID];\n\n        uint256 index = getIndexForAuctionInActiveArray(_auctionID);\n        require(index != activeAuctions.length); \n\n        require(currentBidForAuctionWithID[_auctionID].sender == msg.sender);\n        require(auction.state == AuctionState.Active);\n        require(now > auction.endTimestamp);\n        auction.state = AuctionState.Ended;\n        \n        var bidValue = currentBidForAuctionWithID[_auctionID].value;\n        \n        endedAuctions.push(_auctionID);\n        delete(activeAuctions[index]);\n\n        var _artwork = artwork[auction.artworkID];\n        refundsFor[_artwork.creator] = bidValue * 10 / 100;\n        refundsFor[_artwork.owner] = bidValue * 85 / 100;\n        refundsFor[owner] = bidValue * 5 / 100;\n        transferArtwork(msg.sender, auction.artworkID);\n\n        LogEndedAuction(_auctionID);\n    }\n    \n    function makeBid(uint256 _auctionID) public payable {\n        var _auction = auctionWithID[_auctionID];\n        \n        require(msg.value >= _auction.initialPrice);\n        require(msg.value > currentBidForAuctionWithID[_auctionID].value);\n        \n        refundsFor[currentBidForAuctionWithID[_auctionID].sender] = currentBidForAuctionWithID[_auctionID].value;\n        \n        var bid = Bid({\n            sender: msg.sender,\n            value: msg.value\n        });\n        \n        currentBidForAuctionWithID[_auctionID] = bid;\n        LogNewBid(_auctionID, msg.sender, msg.value);\n    }\n    \n    // ==================================\n    //          CONSTANT FUNCTIONS\n    // ==================================\n    \n    /**\n        Returns the profile of the caller.\n    */\n    function getProfile() public view returns (bytes32, bytes32, bytes32, bytes32) {\n        return (profileOf[msg.sender].imageLink, profileOf[msg.sender].firstName, profileOf[msg.sender].lastName, profileOf[msg.sender].nickName);\n    }\n\n    function getAuctionWithID(uint256 _auctionID) public view returns (bytes32, uint256, uint256, uint256, bytes32) {\n        var auction = auctionWithID[_auctionID];\n        bytes32 auctionState = \"\";\n        if (auction.state == AuctionState.Active) {\n            auctionState = \"Active\";\n        } else {\n            auctionState = \"Ended\";\n        }\n        return (bytes32(auction.owner), auction.artworkID, auction.initialPrice, auction.endTimestamp, auctionState);\n    }\n\n    function getActiveAuctions() public view returns (uint256[]) {\n        return activeAuctions;\n    }\n\n    function getEndedAuctions() public view returns (uint256[]) {\n        return endedAuctions;\n    }\n\n    function getArtworkWithID(uint256 _artworkID) public view returns (bytes32) {\n        var _artwork = artwork[_artworkID];\n        return _artwork.imageLink;\n    }\n\n    function getPortfolio() public view returns (uint256[]) {\n        return portfolioOf[msg.sender];\n    }\n    \n    // ==================================\n    //              MODIFIERS\n    // ==================================\n    \n    modifier senderHasArtworkWithID(uint256 _id) {\n        require(getIndexForArtworkInSenderPortfolio(_id) != portfolioOf[msg.sender].length);\n        _;\n    }\n    \n}",
  "sourcePath": "/Users/hernanpaez/Desktop/CURSO/Darticles/contracts/Darticles.sol",
  "compiler": {
    "name": "solc",
    "version": "0.4.18+commit.9cf6e910.Emscripten.clang"
  },
  "schemaVersion": "1.0.1",
  "updatedAt": "2017-11-22T23:58:43.534Z"
}