{
  "contractName": "Darticles",
  "abi": [
    {
      "constant": false,
      "inputs": [
        {
          "name": "_to",
          "type": "address"
        },
        {
          "name": "_id",
          "type": "uint256"
        }
      ],
      "name": "transferArtwork",
      "outputs": [],
      "payable": false,
      "stateMutability": "nonpayable",
      "type": "function"
    },
    {
      "constant": true,
      "inputs": [
        {
          "name": "",
          "type": "uint256"
        }
      ],
      "name": "currentBidForAuctionWithID",
      "outputs": [
        {
          "name": "sender",
          "type": "address"
        },
        {
          "name": "value",
          "type": "uint256"
        }
      ],
      "payable": false,
      "stateMutability": "view",
      "type": "function"
    },
    {
      "constant": false,
      "inputs": [
        {
          "name": "_auctionID",
          "type": "uint256"
        }
      ],
      "name": "makeBid",
      "outputs": [],
      "payable": true,
      "stateMutability": "payable",
      "type": "function"
    },
    {
      "constant": false,
      "inputs": [
        {
          "name": "_amount",
          "type": "uint256"
        }
      ],
      "name": "withdraw",
      "outputs": [
        {
          "name": "",
          "type": "bool"
        }
      ],
      "payable": false,
      "stateMutability": "nonpayable",
      "type": "function"
    },
    {
      "constant": true,
      "inputs": [
        {
          "name": "",
          "type": "address"
        }
      ],
      "name": "profileOf",
      "outputs": [
        {
          "name": "imageLink",
          "type": "bytes32"
        },
        {
          "name": "firstName",
          "type": "bytes32"
        },
        {
          "name": "lastName",
          "type": "bytes32"
        },
        {
          "name": "nickName",
          "type": "bytes32"
        }
      ],
      "payable": false,
      "stateMutability": "view",
      "type": "function"
    },
    {
      "constant": false,
      "inputs": [
        {
          "name": "_imageLink",
          "type": "bytes32"
        },
        {
          "name": "_title",
          "type": "bytes32"
        },
        {
          "name": "_description",
          "type": "bytes32"
        }
      ],
      "name": "addArtwork",
      "outputs": [],
      "payable": false,
      "stateMutability": "nonpayable",
      "type": "function"
    },
    {
      "constant": true,
      "inputs": [
        {
          "name": "",
          "type": "uint256"
        }
      ],
      "name": "getArtwork",
      "outputs": [
        {
          "name": "",
          "type": "uint256[]"
        },
        {
          "name": "owner",
          "type": "address"
        },
        {
          "name": "imageLink",
          "type": "bytes32"
        },
        {
          "name": "title",
          "type": "bytes32"
        },
        {
          "name": "description",
          "type": "bytes32"
        }
      ],
      "payable": false,
      "stateMutability": "view",
      "type": "function"
    },
    {
      "constant": true,
      "inputs": [
        {
          "name": "",
          "type": "uint256"
        },
        {
          "name": "",
          "type": "uint256"
        }
      ],
      "name": "artwork",
      "outputs": [
        {
          "name": "creator",
          "type": "address"
        },
        {
          "name": "owner",
          "type": "address"
        },
        {
          "name": "imageLink",
          "type": "bytes32"
        },
        {
          "name": "title",
          "type": "bytes32"
        },
        {
          "name": "description",
          "type": "bytes32"
        }
      ],
      "payable": false,
      "stateMutability": "view",
      "type": "function"
    },
    {
      "constant": true,
      "inputs": [
        {
          "name": "",
          "type": "uint256"
        },
        {
          "name": "_initialPrice",
          "type": "uint256"
        },
        {
          "name": "_endTimestamp",
          "type": "uint256"
        }
      ],
      "name": "auctions",
      "outputs": [
        {
          "name": "",
          "type": "uint256"
        }
      ],
      "payable": false,
      "stateMutability": "view",
      "type": "function"
    },
    {
      "constant": true,
      "inputs": [
        {
          "name": "",
          "type": "address"
        },
        {
          "name": "",
          "type": "uint256"
        }
      ],
      "name": "auctionsOf",
      "outputs": [
        {
          "name": "",
          "type": "uint256"
        },
        {
          "name": "artworkID",
          "type": "uint256"
        },
        {
          "name": "initialPrice",
          "type": "uint256"
        },
        {
          "name": "endTimestamp",
          "type": "uint256"
        },
        {
          "name": "state",
          "type": "uint8"
        }
      ],
      "payable": false,
      "stateMutability": "view",
      "type": "function"
    },
    {
      "constant": false,
      "inputs": [
        {
          "name": "_artworkID",
          "type": "uint256"
        },
        {
          "name": "_initialPrice",
          "type": "uint256"
        },
        {
          "name": "_endTimestamp",
          "type": "uint256"
        }
      ],
      "name": "startAuction",
      "outputs": [],
      "payable": false,
      "stateMutability": "nonpayable",
      "type": "function"
    },
    {
      "constant": true,
      "inputs": [
        {
          "name": "",
          "type": "address"
        },
        {
          "name": "",
          "type": "uint256"
        }
      ],
      "name": "artworkCount",
      "outputs": [
        {
          "name": "",
          "type": "uint256"
        }
      ],
      "payable": false,
      "stateMutability": "view",
      "type": "function"
    },
    {
      "constant": true,
      "inputs": [
        {
          "name": "",
          "type": "uint256"
        }
      ],
      "name": "auctionWithID",
      "outputs": [
        {
          "name": "owner",
          "type": "address"
        },
        {
          "name": "artworkID",
          "type": "uint256"
        },
        {
          "name": "initialPrice",
          "type": "uint256"
        },
        {
          "name": "endTimestamp",
          "type": "uint256"
        },
        {
          "name": "state",
          "type": "uint8"
        }
      ],
      "payable": false,
      "stateMutability": "view",
      "type": "function"
    },
    {
      "constant": true,
      "inputs": [],
      "name": "auctionsCount",
      "outputs": [
        {
          "components": [
            {
              "name": "imageLink",
              "type": "bytes32"
            },
            {
              "name": "firstName",
              "type": "bytes32"
            },
            {
              "name": "lastName",
              "type": "bytes32"
            },
            {
              "name": "nickName",
              "type": "bytes32"
            }
          ],
          "name": "",
          "type": "uint256"
        }
      ],
      "payable": false,
      "stateMutability": "view",
      "type": "function"
    },
    {
      "constant": false,
      "inputs": [
        {
          "name": "_auctionID",
          "type": "uint256"
        },
        {
          "name": "_firstName",
          "type": "bytes32"
        },
        {
          "name": "_lastName",
          "type": "bytes32"
        },
        {
          "name": "_nickName",
          "type": "bytes32"
        }
      ],
      "name": "endAuction",
      "outputs": [],
      "payable": false,
      "stateMutability": "nonpayable",
      "type": "function"
    },
    {
      "inputs": [
        {
          "name": "",
          "type": "address"
        },
        {
          "name": "",
          "type": "uint256"
        }
      ],
      "payable": false,
      "stateMutability": "view",
      "type": "function",
      "constant": true,
      "name": "portfolioOf",
      "outputs": [
        {
          "name": "",
          "type": "uint256"
        }
      ]
    },
    {
      "anonymous": false,
      "inputs": [
        {
          "indexed": false,
          "name": "",
          "type": "address"
        },
        {
          "indexed": false,
          "name": "sender",
          "type": "address"
        },
        {
          "indexed": false,
          "name": "value",
          "type": "uint256"
        }
      ],
      "name": "refundsFor",
      "type": "function",
      "constant": true,
      "outputs": [
        {
          "name": "",
          "type": "uint256"
        }
      ],
      "payable": false,
      "stateMutability": "view"
    },
    {
      "anonymous": false,
      "inputs": [
        {
          "indexed": false,
          "name": "auctionID",
          "type": "uint256"
        }
      ],
      "name": "getProfile",
      "type": "function",
      "constant": true,
      "outputs": [
        {
          "components": [
            {
              "name": "imageLink",
              "type": "bytes32"
            },
            {
              "name": "firstName",
              "type": "bytes32"
            },
            {
              "name": "lastName",
              "type": "bytes32"
            },
            {
              "name": "nickName",
              "type": "bytes32"
            }
          ],
          "name": "",
          "type": "tuple"
        }
      ],
      "payable": false,
      "stateMutability": "view"
    },
    {
      "anonymous": false,
      "inputs": [
        {
          "indexed": false,
          "name": "auctionID",
          "type": "uint256"
        }
      ],
      "name": "getAuctions",
      "type": "function",
      "constant": true,
      "outputs": [
        {
          "name": "",
          "type": "uint256[]"
        }
      ],
      "payable": false,
      "stateMutability": "view"
    },
    {
      "constant": false,
      "inputs": [
        {
          "name": "_profileImageLink",
          "type": "bytes32"
        },
        {
          "name": "_firstName",
          "type": "bytes32"
        },
        {
          "name": "_lastName",
          "type": "bytes32"
        },
        {
          "name": "_nickName",
          "type": "bytes32"
        }
      ],
      "name": "setProfile",
      "outputs": [],
      "payable": false,
      "stateMutability": "nonpayable",
      "type": "function"
    },
    {
      "inputs": [],
      "payable": false,
      "stateMutability": "nonpayable",
      "type": "constructor"
    },
    {
      "anonymous": false,
      "inputs": [
        {
          "indexed": false,
          "name": "auctionID",
          "type": "uint256"
        },
        {
          "indexed": false,
          "name": "sender",
          "type": "address"
        },
        {
          "indexed": false,
          "name": "value",
          "type": "uint256"
        }
      ],
      "name": "LogNewBet",
      "type": "event"
    },
    {
      "anonymous": false,
      "inputs": [
        {
          "indexed": false,
          "name": "auctionID",
          "type": "uint256"
        }
      ],
      "name": "LogOpenedAuction",
      "type": "event"
    },
    {
      "anonymous": false,
      "inputs": [
        {
          "indexed": false,
          "name": "auctionID",
          "type": "uint256"
        }
      ],
      "name": "LogEndedAuction",
      "type": "event"
    }
  ],
  "bytecode": "0x6060604052341561000f57600080fd5b6118448061001e6000396000f300606060405260043610610112576000357c0100000000000000000000000000000000000000000000000000000000900463ffffffff1680630c45ed0714610117578063155b1a7314610159578063175b2304146101c35780632e1a7d4d146101db5780632f8eb9cb146102165780632ff7478514610298578063325adc62146102d957806354682d7214610343578063571a26a0146104065780638501313f1461043d57806391e078bb14610493578063a0876445146104c8578063b0985e5d146104f1578063b830620a1461057e578063b9a2de3a146105a7578063d2d8fca3146105ca578063d2e7700c14610620578063d6afc9b11461066d578063d7c0691914610696578063d875483214610700575b600080fd5b341561012257600080fd5b610157600480803573ffffffffffffffffffffffffffffffffffffffff1690602001909190803590602001909190505061074e565b005b341561016457600080fd5b61017a60048080359060200190919050506108c7565b604051808373ffffffffffffffffffffffffffffffffffffffff1673ffffffffffffffffffffffffffffffffffffffff1681526020018281526020019250505060405180910390f35b6101d9600480803590602001909190505061090b565b005b34156101e657600080fd5b6101fc6004808035906020019091905050610a8b565b604051808215151515815260200191505060405180910390f35b341561022157600080fd5b61024d600480803573ffffffffffffffffffffffffffffffffffffffff16906020019091905050610b71565b60405180856000191660001916815260200184600019166000191681526020018360001916600019168152602001826000191660001916815260200194505050505060405180910390f35b34156102a357600080fd5b6102d76004808035600019169060200190919080356000191690602001909190803560001916906020019091905050610ba1565b005b34156102e457600080fd5b6102ec610d5f565b6040518080602001828103825283818151815260200191508051906020019060200280838360005b8381101561032f578082015181840152602081019050610314565b505050509050019250505060405180910390f35b341561034e57600080fd5b6103646004808035906020019091905050610dfa565b604051808673ffffffffffffffffffffffffffffffffffffffff1673ffffffffffffffffffffffffffffffffffffffff1681526020018573ffffffffffffffffffffffffffffffffffffffff1673ffffffffffffffffffffffffffffffffffffffff1681526020018460001916600019168152602001836000191660001916815260200182600019166000191681526020019550505050505060405180910390f35b341561041157600080fd5b6104276004808035906020019091905050610e70565b6040518082815260200191505060405180910390f35b341561044857600080fd5b61047d600480803573ffffffffffffffffffffffffffffffffffffffff16906020019091908035906020019091905050610e94565b6040518082815260200191505060405180910390f35b341561049e57600080fd5b6104c66004808035906020019091908035906020019091908035906020019091905050610ec5565b005b34156104d357600080fd5b6104db611131565b6040518082815260200191505060405180910390f35b34156104fc57600080fd5b6105126004808035906020019091905050611137565b604051808673ffffffffffffffffffffffffffffffffffffffff1673ffffffffffffffffffffffffffffffffffffffff16815260200185815260200184815260200183815260200182600181111561056657fe5b60ff1681526020019550505050505060405180910390f35b341561058957600080fd5b61059161119a565b6040518082815260200191505060405180910390f35b34156105b257600080fd5b6105c860048080359060200190919050506111a0565b005b34156105d557600080fd5b61060a600480803573ffffffffffffffffffffffffffffffffffffffff169060200190919080359060200190919050506113be565b6040518082815260200191505060405180910390f35b341561062b57600080fd5b610657600480803573ffffffffffffffffffffffffffffffffffffffff169060200190919050506113ef565b6040518082815260200191505060405180910390f35b341561067857600080fd5b610680611407565b6040518082815260200191505060405180910390f35b34156106a157600080fd5b6106a96114a7565b6040518080602001828103825283818151815260200191508051906020019060200280838360005b838110156106ec5780820151818401526020810190506106d1565b505050509050019250505060405180910390f35b341561070b57600080fd5b61074c600480803560001916906020019091908035600019169060200190919080356000191690602001909190803560001916906020019091905050611505565b005b6000610759826115cb565b9050600360003373ffffffffffffffffffffffffffffffffffffffff1673ffffffffffffffffffffffffffffffffffffffff1681526020019081526020016000208054905081141515156107ac57600080fd5b826002600084815260200190815260200160002060010160006101000a81548173ffffffffffffffffffffffffffffffffffffffff021916908373ffffffffffffffffffffffffffffffffffffffff160217905550600360008473ffffffffffffffffffffffffffffffffffffffff1673ffffffffffffffffffffffffffffffffffffffff16815260200190815260200160002080548060010182816108529190611698565b916000526020600020900160008490919091505550600360003373ffffffffffffffffffffffffffffffffffffffff1673ffffffffffffffffffffffffffffffffffffffff168152602001908152602001600020818154811015156108b357fe5b906000526020600020900160009055505050565b60086020528060005260406000206000915090508060000160009054906101000a900473ffffffffffffffffffffffffffffffffffffffff16908060010154905082565b60006109156116c4565b6006600084815260200190815260200160002091508160020154341015151561093d57600080fd5b60086000848152602001908152602001600020600101543411151561096157600080fd5b6008600084815260200190815260200160002060010154600560006008600087815260200190815260200160002060000160009054906101000a900473ffffffffffffffffffffffffffffffffffffffff1673ffffffffffffffffffffffffffffffffffffffff1673ffffffffffffffffffffffffffffffffffffffff1681526020019081526020016000208190555060408051908101604052803373ffffffffffffffffffffffffffffffffffffffff168152602001348152509050806008600085815260200190815260200160002060008201518160000160006101000a81548173ffffffffffffffffffffffffffffffffffffffff021916908373ffffffffffffffffffffffffffffffffffffffff16021790555060208201518160010155905050505050565b600081600560003373ffffffffffffffffffffffffffffffffffffffff1673ffffffffffffffffffffffffffffffffffffffff1681526020019081526020016000205410151515610adb57600080fd5b3373ffffffffffffffffffffffffffffffffffffffff166108fc839081150290604051600060405180830381858888f193505050501515610b1b57600080fd5b81600560003373ffffffffffffffffffffffffffffffffffffffff1673ffffffffffffffffffffffffffffffffffffffff1681526020019081526020016000206000828254039250508190555060019050919050565b60046020528060005260406000206000915090508060000154908060010154908060020154908060030154905084565b6000610bab6116f4565b6000808154600101919050819055915060a0604051908101604052803373ffffffffffffffffffffffffffffffffffffffff1681526020013373ffffffffffffffffffffffffffffffffffffffff168152602001866000191681526020018560001916815260200184600019168152509050806002600084815260200190815260200160002060008201518160000160006101000a81548173ffffffffffffffffffffffffffffffffffffffff021916908373ffffffffffffffffffffffffffffffffffffffff16021790555060208201518160010160006101000a81548173ffffffffffffffffffffffffffffffffffffffff021916908373ffffffffffffffffffffffffffffffffffffffff160217905550604082015181600201906000191690556060820151816003019060001916905560808201518160040190600019169055905050600360003373ffffffffffffffffffffffffffffffffffffffff1673ffffffffffffffffffffffffffffffffffffffff1681526020019081526020016000208054806001018281610d439190611698565b9160005260206000209001600084909190915055505050505050565b610d67611759565b600360003373ffffffffffffffffffffffffffffffffffffffff1673ffffffffffffffffffffffffffffffffffffffff168152602001908152602001600020805480602002602001604051908101604052809291908181526020018280548015610df057602002820191906000526020600020905b815481526020019060010190808311610ddc575b5050505050905090565b60026020528060005260406000206000915090508060000160009054906101000a900473ffffffffffffffffffffffffffffffffffffffff16908060010160009054906101000a900473ffffffffffffffffffffffffffffffffffffffff16908060020154908060030154908060040154905085565b600981815481101515610e7f57fe5b90600052602060002090016000915090505481565b600760205281600052604060002081815481101515610eaf57fe5b9060005260206000209001600091509150505481565b610ecd61176d565b600084600360003373ffffffffffffffffffffffffffffffffffffffff1673ffffffffffffffffffffffffffffffffffffffff16815260200190815260200160002080549050610f1c826115cb565b14151515610f2957600080fd5b60a0604051908101604052803373ffffffffffffffffffffffffffffffffffffffff16815260200187815260200186815260200185815260200160006001811115610f7057fe5b81525092506001600081546001019190508190559150610f8e61165e565b6008600084815260200190815260200160002060008201518160000160006101000a81548173ffffffffffffffffffffffffffffffffffffffff021916908373ffffffffffffffffffffffffffffffffffffffff16021790555060208201518160010155905050600980548060010182816110099190611698565b916000526020600020900160008490919091505550600760003373ffffffffffffffffffffffffffffffffffffffff1673ffffffffffffffffffffffffffffffffffffffff168152602001908152602001600020805480600101828161106f9190611698565b916000526020600020900160008490919091505550826006600084815260200190815260200160002060008201518160000160006101000a81548173ffffffffffffffffffffffffffffffffffffffff021916908373ffffffffffffffffffffffffffffffffffffffff16021790555060208201518160010155604082015181600201556060820151816003015560808201518160040160006101000a81548160ff0219169083600181111561112157fe5b0217905550905050505050505050565b60005481565b60066020528060005260406000206000915090508060000160009054906101000a900473ffffffffffffffffffffffffffffffffffffffff16908060010154908060020154908060030154908060040160009054906101000a900460ff16905085565b60015481565b60008060006006600085815260200190815260200160002092503373ffffffffffffffffffffffffffffffffffffffff166008600086815260200190815260200160002060000160009054906101000a900473ffffffffffffffffffffffffffffffffffffffff1673ffffffffffffffffffffffffffffffffffffffff1614151561122a57600080fd5b6000600181111561123757fe5b8360040160009054906101000a900460ff16600181111561125457fe5b14151561126057600080fd5b82600301544211151561127257600080fd5b60018360040160006101000a81548160ff0219169083600181111561129357fe5b021790555060086000858152602001908152602001600020600101549150600260008460010154815260200190815260200160002090506064600f83028115156112d957fe5b04600560008360000160009054906101000a900473ffffffffffffffffffffffffffffffffffffffff1673ffffffffffffffffffffffffffffffffffffffff1673ffffffffffffffffffffffffffffffffffffffff1681526020019081526020016000208190555060646055830281151561135057fe5b04600560008360010160009054906101000a900473ffffffffffffffffffffffffffffffffffffffff1673ffffffffffffffffffffffffffffffffffffffff1673ffffffffffffffffffffffffffffffffffffffff1681526020019081526020016000208190555050505050565b6003602052816000526040600020818154811015156113d957fe5b9060005260206000209001600091509150505481565b60056020528060005260406000206000915090505481565b61140f6117be565b600460003373ffffffffffffffffffffffffffffffffffffffff1673ffffffffffffffffffffffffffffffffffffffff168152602001908152602001600020608060405190810160405290816000820154600019166000191681526020016001820154600019166000191681526020016002820154600019166000191681526020016003820154600019166000191681525050905090565b6114af611759565b60098054806020026020016040519081016040528092919081815260200182805480156114fb57602002820191906000526020600020905b8154815260200190600101908083116114e7575b5050505050905090565b61150d6117be565b6080604051908101604052808660001916815260200185600019168152602001846000191681526020018360001916815250905080600460003373ffffffffffffffffffffffffffffffffffffffff1673ffffffffffffffffffffffffffffffffffffffff168152602001908152602001600020600082015181600001906000191690556020820151816001019060001916905560408201518160020190600019169055606082015181600301906000191690559050505050505050565b6000806000600360003373ffffffffffffffffffffffffffffffffffffffff1673ffffffffffffffffffffffffffffffffffffffff1681526020019081526020016000209150600090505b83828281548110151561162557fe5b906000526020600020900154141580156116425750818054905081105b15611654578080600101915050611616565b8092505050919050565b6116666116c4565b6040805190810160405280600073ffffffffffffffffffffffffffffffffffffffff1681526020016000815250905090565b8154818355818115116116bf578183600052602060002091820191016116be91906117f3565b5b505050565b6040805190810160405280600073ffffffffffffffffffffffffffffffffffffffff168152602001600081525090565b60a060405190810160405280600073ffffffffffffffffffffffffffffffffffffffff168152602001600073ffffffffffffffffffffffffffffffffffffffff1681526020016000801916815260200160008019168152602001600080191681525090565b602060405190810160405280600081525090565b60a060405190810160405280600073ffffffffffffffffffffffffffffffffffffffff168152602001600081526020016000815260200160008152602001600060018111156117b857fe5b81525090565b608060405190810160405280600080191681526020016000801916815260200160008019168152602001600080191681525090565b61181591905b808211156118115760008160009055506001016117f9565b5090565b905600a165627a7a723058209701f9ca25d05cf625ef9ad1541cf62849bb16aa9f443da5fded0285472fa6f40029",
  "source": "pragma solidity ^0.4.18;\n\ncontract Darticles {\n    \n    // ==================================\n    //          DATA STRUCTURES\n    // ==================================\n    \n    /**\n        Profile represents user's information,\n        No matter if he/she is an artist or\n        an art collectionist\n    */\n    struct Profile {\n        bytes32 imageLink;   // IPFS link\n        bytes32 firstName;\n        bytes32 lastName;\n        bytes32 nickName;\n    }\n    \n    /**\n        The artwork represents the art pieces that \n        and artist created.\n        \n        An artwork can be auctioned.\n    */\n    struct Artwork {\n        // It is important to always keep track of the artwork creator, \n        // since this address can be rewarded on every auction \n        // in which this artwork is being transfered\n        // \n        // The creator property must never be changed. It is immutable\n        address creator;    \n        \n        // The owner can change because the artwork can be transfered.\n        address owner;\n        \n        bytes32 imageLink;      // IPFS link\n        bytes32 title;          // The name of this piece\n        bytes32 description;    // Some explanatory notes\n    }\n    \n    /**\n        This represents bids that can be done during \n        an auction\n    */\n    struct Bid {\n        address sender;\n        uint256 value;\n    }\n    \n    enum AuctionState { Active, Ended }\n    \n    struct Auction {\n        address owner;          // The person that started the auction\n        uint256 artworkID;      // The id of the art piece that is being auctioned\n        uint256 initialPrice;   // The initial price to start bidding\n        uint256 endTimestamp;   // The endtime of the auction\n        AuctionState state;     // The current auction state\n    }\n    \n    // ==================================\n    //          ATTRIBUTES\n    // ==================================\n    \n    // This is important because we need every artwork to be unique.\n    // So every artwork has an 'id' property that is equal to the \n    // number of artworks in this contract\n    uint256 public artworkCount;\n    uint256 public auctionsCount;\n    \n    mapping(uint256 => Artwork) public artwork;         // This allows us to get an artwork from its id\n    mapping(address => uint256[]) public portfolioOf;   // This allows us to get the ids of the artwork of a specific user\n    mapping(address => Profile) public profileOf;       // Profiles for each address\n    mapping(address => uint256) public refundsFor;      // Ether that people can withdraw\n    mapping(uint256 => Auction) public auctionWithID;\n    mapping(address => uint256[]) public auctionsOf;\n    mapping(uint256 => Bid) public currentBidForAuctionWithID;\n\n    uint256[] public auctions;\n    \n    // ==================================\n    //          EVENTS\n    // ==================================\n    \n    event LogNewBet(uint256 auctionID, address sender, uint256 value);\n    event LogOpenedAuction(uint256 auctionID);\n    event LogEndedAuction(uint256 auctionID);\n    \n    // ==================================\n    //          CONSTRUCTORS\n    // ==================================\n    \n    function Darticles() public {\n        \n    }\n    \n    // ==================================\n    //          MUTATING FUNCTIONS\n    // ==================================\n    \n    /**\n        \n    */\n    function setProfile \n    (\n        bytes32 _profileImageLink, \n        bytes32 _firstName, \n        bytes32 _lastName, \n        bytes32 _nickName\n    )   \n        public \n    {\n        var profile = Profile(_profileImageLink, _firstName, _lastName, _nickName);\n        profileOf[msg.sender] = profile;\n    }\n    \n    /**\n        This contract implements the withdraw pattern,\n        in order to avoid issues related with send/transfer done in place\n    */\n    function withdraw(uint256 _amount) public returns (bool) {\n        require(refundsFor[msg.sender] >= _amount);\n        msg.sender.transfer(_amount);\n        refundsFor[msg.sender] -= _amount;\n        return true;\n    }\n    \n    function addArtwork(bytes32 _imageLink, bytes32 _title, bytes32 _description) public {\n        uint256 _id = ++artworkCount;\n        var _artwork = Artwork({\n            creator         : msg.sender, \n            owner           : msg.sender, \n            imageLink       : _imageLink, \n            title           : _title, \n            description     : _description\n        });\n        artwork[_id] = _artwork;\n        portfolioOf[msg.sender].push(_id);\n    }\n    \n    function transferArtwork(address _to, uint256 _id) public {\n        uint256 index = getIndexForArtworkInSenderPortfolio(_id);\n        require (index != portfolioOf[msg.sender].length); // The artwork was not found\n        artwork[_id].owner = _to;\n        portfolioOf[_to].push(_id);\n        delete(portfolioOf[msg.sender][index]);\n    }\n    \n    function getIndexForArtworkInSenderPortfolio(uint256 _id) private view returns (uint256) {\n        var idsForSender = portfolioOf[msg.sender];\n        uint256 index = 0;\n        while (idsForSender[index] != _id && index < idsForSender.length) {\n            index++;\n        }\n        return index;\n    }\n    \n    function createEmptyBid() private pure returns (Bid) {\n        return Bid({\n            sender: address(0),\n            value: 0\n        });\n    }\n    \n    function startAuction(\n        uint256 _artworkID, \n        uint256 _initialPrice, \n        uint256 _endTimestamp\n    )   \n        public \n        senderHasArtworkWithID(_artworkID)\n    {\n        var auction = Auction({\n            owner: msg.sender,\n            artworkID       : _artworkID,\n            initialPrice    : _initialPrice,\n            endTimestamp    : _endTimestamp,\n            state           : AuctionState.Active\n        });\n        \n        uint256 auctionID = ++auctionsCount;\n        currentBidForAuctionWithID[auctionID] = createEmptyBid();\n        auctions.push(auctionID);\n        auctionsOf[msg.sender].push(auctionID);\n        auctionWithID[auctionID] = auction;\n    }\n    \n    function endAuction(uint256 _auctionID) public {\n        var auction = auctionWithID[_auctionID];\n        require(currentBidForAuctionWithID[_auctionID].sender == msg.sender);\n        require(auction.state == AuctionState.Active);\n        require(now > auction.endTimestamp);\n        auction.state = AuctionState.Ended;\n        \n        var bidValue = currentBidForAuctionWithID[_auctionID].value;\n        \n        var _artwork = artwork[auction.artworkID];\n        refundsFor[_artwork.creator] = bidValue * 15 / 100;\n        refundsFor[_artwork.owner] = bidValue * 85 / 100;\n    }\n    \n    function makeBid(uint256 _auctionID) public payable {\n        var _auction = auctionWithID[_auctionID];\n        \n        require(msg.value >= _auction.initialPrice);\n        require(msg.value > currentBidForAuctionWithID[_auctionID].value);\n        \n        refundsFor[currentBidForAuctionWithID[_auctionID].sender] = currentBidForAuctionWithID[_auctionID].value;\n        \n        var bid = Bid({\n            sender: msg.sender,\n            value: msg.value\n        });\n        \n        currentBidForAuctionWithID[_auctionID] = bid;\n    }\n    \n    // ==================================\n    //          CONSTANT FUNCTIONS\n    // ==================================\n    \n    /**\n        Returns the profile of the caller.\n    */\n    function getProfile() public view returns (Profile) {\n        return profileOf[msg.sender];\n    }\n\n    function getAuctions() public view returns (uint256[]) {\n        return auctions;\n    }\n\n    function getArtwork() public view returns (uint256[]) {\n        return portfolioOf[msg.sender];\n    }\n    \n    // ==================================\n    //              MODIFIERS\n    // ==================================\n    \n    modifier senderHasArtworkWithID(uint256 _id) {\n        require(getIndexForArtworkInSenderPortfolio(_id) != portfolioOf[msg.sender].length);\n        _;\n    }\n    \n}",
  "sourcePath": "/Users/fernandoortiz/Documents/Pruebas/blockchain/curso/Darticles/contracts/Darticles.sol",
  "compiler": {
    "name": "solc",
    "version": "0.4.18+commit.9cf6e910.Emscripten.clang"
  },
  "schemaVersion": "1.0.1",
  "updatedAt": "2017-11-19T20:25:11.369Z"
}